{
  "transactions": [
    {
      "hash": "0xffe835ba7d7ebf14027bbc220e3d006d5c62baa0033f68cbe31feda8722a26cd",
      "transactionType": "CALL",
      "contractName": null,
      "contractAddress": "0x1b46779584a8bfae6f77418f6c3024fba9e7b92a",
      "function": "approve(address,uint256)",
      "arguments": [
        "0x000000000022D473030F116dDEE9F6B43aC78BA3",
        "115792089237316195423570985008687907853269984665640564039457584007913129639935"
      ],
      "transaction": {
        "from": "0xfb9f232a7b84039480f3c7178900ee89920238f4",
        "to": "0x1b46779584a8bfae6f77418f6c3024fba9e7b92a",
        "gas": "0x10c6b",
        "value": "0x0",
        "input": "0x095ea7b3000000000000000000000000000000000022d473030f116ddee9f6b43ac78ba3ffffffffffffffffffffffffffffffffffffffffffffffffffffffffffffffff",
        "nonce": "0x4",
        "chainId": "0x515"
      },
      "additionalContracts": [],
      "isFixedGasLimit": false
    },
    {
      "hash": "0xcafe0fc1a0b6187e014928a6a07e4ba13ad13a1586cfa9de8729dfc3b10fedf5",
      "transactionType": "CALL",
      "contractName": null,
      "contractAddress": "0x000000000022d473030f116ddee9f6b43ac78ba3",
      "function": "approve(address,address,uint160,uint48)",
      "arguments": [
        "0x1b46779584a8BFaE6F77418F6c3024FBA9e7B92a",
        "0xf969Aee60879C54bAAed9F3eD26147Db216Fd664",
        "1461501637330902918203684832716283019655932542975",
        "281474976710655"
      ],
      "transaction": {
        "from": "0xfb9f232a7b84039480f3c7178900ee89920238f4",
        "to": "0x000000000022d473030f116ddee9f6b43ac78ba3",
        "gas": "0x1112d",
        "value": "0x0",
        "input": "0x87517c450000000000000000000000001b46779584a8bfae6f77418f6c3024fba9e7b92a000000000000000000000000f969aee60879c54baaed9f3ed26147db216fd664000000000000000000000000ffffffffffffffffffffffffffffffffffffffff0000000000000000000000000000000000000000000000000000ffffffffffff",
        "nonce": "0x5",
        "chainId": "0x515"
      },
      "additionalContracts": [],
      "isFixedGasLimit": false
    },
    {
      "hash": "0x312a5ac1c85e275693a149013f187d66eb7e723eb13935b69d182669b01ea402",
      "transactionType": "CALL",
      "contractName": null,
      "contractAddress": "0xa740013d461b6eee7e774cad7f5d049919ac801b",
      "function": "approve(address,uint256)",
      "arguments": [
        "0x000000000022D473030F116dDEE9F6B43aC78BA3",
        "115792089237316195423570985008687907853269984665640564039457584007913129639935"
      ],
      "transaction": {
        "from": "0xfb9f232a7b84039480f3c7178900ee89920238f4",
        "to": "0xa740013d461b6eee7e774cad7f5d049919ac801b",
        "gas": "0x10c6b",
        "value": "0x0",
        "input": "0x095ea7b3000000000000000000000000000000000022d473030f116ddee9f6b43ac78ba3ffffffffffffffffffffffffffffffffffffffffffffffffffffffffffffffff",
        "nonce": "0x6",
        "chainId": "0x515"
      },
      "additionalContracts": [],
      "isFixedGasLimit": false
    },
    {
      "hash": "0xc40703bcac38f3369ba75c9a7425ee73b99eba84701af91a1ce7f69ce79c431d",
      "transactionType": "CALL",
      "contractName": null,
      "contractAddress": "0x000000000022d473030f116ddee9f6b43ac78ba3",
      "function": "approve(address,address,uint160,uint48)",
      "arguments": [
        "0xA740013D461B6EEE7E774CAd7f5d049919AC801B",
        "0xf969Aee60879C54bAAed9F3eD26147Db216Fd664",
        "1461501637330902918203684832716283019655932542975",
        "281474976710655"
      ],
      "transaction": {
        "from": "0xfb9f232a7b84039480f3c7178900ee89920238f4",
        "to": "0x000000000022d473030f116ddee9f6b43ac78ba3",
        "gas": "0x1112d",
        "value": "0x0",
        "input": "0x87517c45000000000000000000000000a740013d461b6eee7e774cad7f5d049919ac801b000000000000000000000000f969aee60879c54baaed9f3ed26147db216fd664000000000000000000000000ffffffffffffffffffffffffffffffffffffffff0000000000000000000000000000000000000000000000000000ffffffffffff",
        "nonce": "0x7",
        "chainId": "0x515"
      },
      "additionalContracts": [],
      "isFixedGasLimit": false
    },
    {
      "hash": "0x0bd0058b1bb3efb72d37aa61dc36bc336e8dcc3087dc1c8aa517e32ace084c4f",
      "transactionType": "CALL",
      "contractName": null,
      "contractAddress": "0xf969aee60879c54baaed9f3ed26147db216fd664",
      "function": "multicall(bytes[])",
      "arguments": [
        "[0xf70204050000000000000000000000001b46779584a8bfae6f77418f6c3024fba9e7b92a000000000000000000000000a740013d461b6eee7e774cad7f5d049919ac801b0000000000000000000000000000000000000000000000000000000000000bb8000000000000000000000000000000000000000000000000000000000000003c000000000000000000000000cd6606e077b271316d09de8521adbe72f8eb40880000000000000000000000000000000000000001000000000000000000000000, 0xdd46508f00000000000000000000000000000000000000000000000000000000000000400000000000000000000000000000000000000000000000000000000069b6ed590000000000000000000000000000000000000000000000000000000000000400000000000000000000000000000000000000000000000000000000000000004000000000000000000000000000000000000000000000000000000000000000800000000000000000000000000000000000000000000000000000000000000004020d14140000000000000000000000000000000000000000000000000000000000000000000000000000000000000000000000000000000000000000000000040000000000000000000000000000000000000000000000000000000000000080000000000000000000000000000000000000000000000000000000000000024000000000000000000000000000000000000000000000000000000000000002a0000000000000000000000000000000000000000000000000000000000000030000000000000000000000000000000000000000000000000000000000000001a00000000000000000000000001b46779584a8bfae6f77418f6c3024fba9e7b92a000000000000000000000000a740013d461b6eee7e774cad7f5d049919ac801b0000000000000000000000000000000000000000000000000000000000000bb8000000000000000000000000000000000000000000000000000000000000003c000000000000000000000000cd6606e077b271316d09de8521adbe72f8eb4088ffffffffffffffffffffffffffffffffffffffffffffffffffffffffffff5038000000000000000000000000000000000000000000000000000000000000afc800000000000000000000000000000000000000000000025dfa559f47bf00af9e00000000000000000000000000000000000000000000021e19e0c9bab240000100000000000000000000000000000000000000000000021e19e0c9bab2400001000000000000000000000000fb9f232a7b84039480f3c7178900ee89920238f40000000000000000000000000000000000000000000000000000000000000180000000000000000000000000000000000000000000000000000000000000000000000000000000000000000000000000000000000000000000000000000000400000000000000000000000001b46779584a8bfae6f77418f6c3024fba9e7b92a000000000000000000000000a740013d461b6eee7e774cad7f5d049919ac801b00000000000000000000000000000000000000000000000000000000000000400000000000000000000000001b46779584a8bfae6f77418f6c3024fba9e7b92a000000000000000000000000fb9f232a7b84039480f3c7178900ee89920238f40000000000000000000000000000000000000000000000000000000000000040000000000000000000000000a740013d461b6eee7e774cad7f5d049919ac801b000000000000000000000000fb9f232a7b84039480f3c7178900ee89920238f4]"
      ],
      "transaction": {
        "from": "0xfb9f232a7b84039480f3c7178900ee89920238f4",
        "to": "0xf969aee60879c54baaed9f3ed26147db216fd664",
        "gas": "0xaece8",
        "value": "0x0",
        "input": "0xac9650d8000000000000000000000000000000000000000000000000000000000000002000000000000000000000000000000000000000000000000000000000000000020000000000000000000000000000000000000000000000000000000000000040000000000000000000000000000000000000000000000000000000000000014000000000000000000000000000000000000000000000000000000000000000c4f70204050000000000000000000000001b46779584a8bfae6f77418f6c3024fba9e7b92a000000000000000000000000a740013d461b6eee7e774cad7f5d049919ac801b0000000000000000000000000000000000000000000000000000000000000bb8000000000000000000000000000000000000000000000000000000000000003c000000000000000000000000cd6606e077b271316d09de8521adbe72f8eb40880000000000000000000000000000000000000001000000000000000000000000000000000000000000000000000000000000000000000000000000000000000000000000000000000000000000000000000000000000000000000464dd46508f00000000000000000000000000000000000000000000000000000000000000400000000000000000000000000000000000000000000000000000000069b6ed590000000000000000000000000000000000000000000000000000000000000400000000000000000000000000000000000000000000000000000000000000004000000000000000000000000000000000000000000000000000000000000000800000000000000000000000000000000000000000000000000000000000000004020d14140000000000000000000000000000000000000000000000000000000000000000000000000000000000000000000000000000000000000000000000040000000000000000000000000000000000000000000000000000000000000080000000000000000000000000000000000000000000000000000000000000024000000000000000000000000000000000000000000000000000000000000002a0000000000000000000000000000000000000000000000000000000000000030000000000000000000000000000000000000000000000000000000000000001a00000000000000000000000001b46779584a8bfae6f77418f6c3024fba9e7b92a000000000000000000000000a740013d461b6eee7e774cad7f5d049919ac801b0000000000000000000000000000000000000000000000000000000000000bb8000000000000000000000000000000000000000000000000000000000000003c000000000000000000000000cd6606e077b271316d09de8521adbe72f8eb4088ffffffffffffffffffffffffffffffffffffffffffffffffffffffffffff5038000000000000000000000000000000000000000000000000000000000000afc800000000000000000000000000000000000000000000025dfa559f47bf00af9e00000000000000000000000000000000000000000000021e19e0c9bab240000100000000000000000000000000000000000000000000021e19e0c9bab2400001000000000000000000000000fb9f232a7b84039480f3c7178900ee89920238f40000000000000000000000000000000000000000000000000000000000000180000000000000000000000000000000000000000000000000000000000000000000000000000000000000000000000000000000000000000000000000000000400000000000000000000000001b46779584a8bfae6f77418f6c3024fba9e7b92a000000000000000000000000a740013d461b6eee7e774cad7f5d049919ac801b00000000000000000000000000000000000000000000000000000000000000400000000000000000000000001b46779584a8bfae6f77418f6c3024fba9e7b92a000000000000000000000000fb9f232a7b84039480f3c7178900ee89920238f40000000000000000000000000000000000000000000000000000000000000040000000000000000000000000a740013d461b6eee7e774cad7f5d049919ac801b000000000000000000000000fb9f232a7b84039480f3c7178900ee89920238f400000000000000000000000000000000000000000000000000000000",
        "nonce": "0x8",
        "chainId": "0x515"
      },
      "additionalContracts": [],
      "isFixedGasLimit": false
    }
  ],
  "receipts": [
    {
      "status": "0x1",
      "cumulativeGasUsed": "0x33181",
      "logs": [
        {
          "address": "0x1b46779584a8bfae6f77418f6c3024fba9e7b92a",
          "topics": [
            "0x8c5be1e5ebec7d5bd14f71427d1e84f3dd0314c0f7b2291e5b200ac8c7c3b925",
            "0x000000000000000000000000fb9f232a7b84039480f3c7178900ee89920238f4",
            "0x000000000000000000000000000000000022d473030f116ddee9f6b43ac78ba3"
          ],
          "data": "0xffffffffffffffffffffffffffffffffffffffffffffffffffffffffffffffff",
          "blockHash": "0x40f10cb532484b361cce33f4ade8ff08d453120d5ac38c1dfe3e8557f9fbce46",
          "blockNumber": "0x2c93206",
          "blockTimestamp": "0x69b6df52",
          "transactionHash": "0xcafe0fc1a0b6187e014928a6a07e4ba13ad13a1586cfa9de8729dfc3b10fedf5",
          "transactionIndex": "0x3",
          "logIndex": "0x1",
          "removed": false
        }
      ],
      "logsBloom": "0x000000000000000000000000000000000000000000000000000000000000040000000000000000000000000000000000000000008000000000000000002000000000000000000000000040000000000000000000000008000000000000000000000000000000000000000000000000000000000000000000000000000000400008000000000000000000000000000000000000000000000000000000000000000a0000000000000000000000000000000020000000000000000000000000000000000000000000000000000000000000000000000000000000000000000000000010000000000000000000000000000000000000080000000000000000000000",
      "type": "0x2",
      "transactionHash": "0xcafe0fc1a0b6187e014928a6a07e4ba13ad13a1586cfa9de8729dfc3b10fedf5",
      "transactionIndex": "0x3",
      "blockHash": "0x40f10cb532484b361cce33f4ade8ff08d453120d5ac38c1dfe3e8557f9fbce46",
      "blockNumber": "0x2c93206",
      "gasUsed": "0xb789",
      "effectiveGasPrice": "0x7a121",
      "blobGasUsed": "0x9c40",
      "from": "0xfb9f232a7b84039480f3c7178900ee89920238f4",
      "to": "0x1b46779584a8bfae6f77418f6c3024fba9e7b92a",
      "contractAddress": null,
      "daFootprintGasScalar": "0x190",
      "l1BaseFeeScalar": "0x7d0",
      "l1BlobBaseFee": "0x1",
      "l1BlobBaseFeeScalar": "0xdbba0",
      "l1Fee": "0x7a",
      "l1GasPrice": "0xa",
      "l1GasUsed": "0x640"
    },
    {
      "status": "0x1",
      "cumulativeGasUsed": "0x3ec4b",
      "logs": [
        {
          "address": "0x000000000022d473030f116ddee9f6b43ac78ba3",
          "topics": [
            "0xda9fa7c1b00402c17d0161b249b1ab8bbec047c5a52207b9c112deffd817036b",
            "0x000000000000000000000000fb9f232a7b84039480f3c7178900ee89920238f4",
            "0x0000000000000000000000001b46779584a8bfae6f77418f6c3024fba9e7b92a",
            "0x000000000000000000000000f969aee60879c54baaed9f3ed26147db216fd664"
          ],
          "data": "0x000000000000000000000000ffffffffffffffffffffffffffffffffffffffff0000000000000000000000000000000000000000000000000000ffffffffffff",
          "blockHash": "0x40f10cb532484b361cce33f4ade8ff08d453120d5ac38c1dfe3e8557f9fbce46",
          "blockNumber": "0x2c93206",
          "blockTimestamp": "0x69b6df52",
          "transactionHash": "0xffe835ba7d7ebf14027bbc220e3d006d5c62baa0033f68cbe31feda8722a26cd",
          "transactionIndex": "0x4",
          "logIndex": "0x2",
          "removed": false
        }
      ],
      "logsBloom": "0x00010000000000000000000000000000000000000000000000000000000004000000000000000000000000000000080000000000000000000000000000080000000000000000000000000000000000000000000000000000000000001000000000000000000000000000000000000000000000000040000000000000000040000820000000000000000000000000000010000000000000000000000000000000000000000000000000000000000000000000000000000000000000080000000000000000000000000000000000000000400000000000000040000000000000000000000000000000000000000000000000000000000000000000000000002400",
      "type": "0x2",
      "transactionHash": "0xffe835ba7d7ebf14027bbc220e3d006d5c62baa0033f68cbe31feda8722a26cd",
      "transactionIndex": "0x4",
      "blockHash": "0x40f10cb532484b361cce33f4ade8ff08d453120d5ac38c1dfe3e8557f9fbce46",
      "blockNumber": "0x2c93206",
      "gasUsed": "0xbaca",
      "effectiveGasPrice": "0x7a121",
      "blobGasUsed": "0xa8c0",
      "from": "0xfb9f232a7b84039480f3c7178900ee89920238f4",
      "to": "0x000000000022d473030f116ddee9f6b43ac78ba3",
      "contractAddress": null,
      "daFootprintGasScalar": "0x190",
      "l1BaseFeeScalar": "0x7d0",
      "l1BlobBaseFee": "0x1",
      "l1BlobBaseFeeScalar": "0xdbba0",
      "l1Fee": "0x84",
      "l1GasPrice": "0xa",
      "l1GasUsed": "0x6cd"
    },
    {
      "status": "0x1",
      "cumulativeGasUsed": "0x4a3d4",
      "logs": [
        {
          "address": "0xa740013d461b6eee7e774cad7f5d049919ac801b",
          "topics": [
            "0x8c5be1e5ebec7d5bd14f71427d1e84f3dd0314c0f7b2291e5b200ac8c7c3b925",
            "0x000000000000000000000000fb9f232a7b84039480f3c7178900ee89920238f4",
            "0x000000000000000000000000000000000022d473030f116ddee9f6b43ac78ba3"
          ],
          "data": "0xffffffffffffffffffffffffffffffffffffffffffffffffffffffffffffffff",
          "blockHash": "0x40f10cb532484b361cce33f4ade8ff08d453120d5ac38c1dfe3e8557f9fbce46",
          "blockNumber": "0x2c93206",
          "blockTimestamp": "0x69b6df52",
          "transactionHash": "0xc40703bcac38f3369ba75c9a7425ee73b99eba84701af91a1ce7f69ce79c431d",
          "transactionIndex": "0x5",
          "logIndex": "0x3",
          "removed": false
        }
      ],
      "logsBloom": "0x00000000000000000000000000000000000000000000000000000000000004000000000000000000000000000000000000000000800000000000000000200000000000000000010000004000000000000000000000000800000000000000000000000000000000000000000000000000000000000000000000000000000040000800000000000000000000000000000000000000000001000000000000000000020000000000000000000000000000000000000000000000000000000000000000000000000000000000000040000000000000000000000000000000000000000010000000000000000000000000000000000000000000000000000000000000",
      "type": "0x2",
      "transactionHash": "0xc40703bcac38f3369ba75c9a7425ee73b99eba84701af91a1ce7f69ce79c431d",
      "transactionIndex": "0x5",
      "blockHash": "0x40f10cb532484b361cce33f4ade8ff08d453120d5ac38c1dfe3e8557f9fbce46",
      "blockNumber": "0x2c93206",
      "gasUsed": "0xb789",
      "effectiveGasPrice": "0x7a121",
      "blobGasUsed": "0x9c40",
      "from": "0xfb9f232a7b84039480f3c7178900ee89920238f4",
      "to": "0xa740013d461b6eee7e774cad7f5d049919ac801b",
      "contractAddress": null,
      "daFootprintGasScalar": "0x190",
      "l1BaseFeeScalar": "0x7d0",
      "l1BlobBaseFee": "0x1",
      "l1BlobBaseFeeScalar": "0xdbba0",
      "l1Fee": "0x7a",
      "l1GasPrice": "0xa",
      "l1GasUsed": "0x640"
    },
    {
      "status": "0x1",
      "cumulativeGasUsed": "0x55e9e",
      "logs": [
        {
          "address": "0x000000000022d473030f116ddee9f6b43ac78ba3",
          "topics": [
            "0xda9fa7c1b00402c17d0161b249b1ab8bbec047c5a52207b9c112deffd817036b",
            "0x000000000000000000000000fb9f232a7b84039480f3c7178900ee89920238f4",
            "0x000000000000000000000000a740013d461b6eee7e774cad7f5d049919ac801b",
            "0x000000000000000000000000f969aee60879c54baaed9f3ed26147db216fd664"
          ],
          "data": "0x000000000000000000000000ffffffffffffffffffffffffffffffffffffffff0000000000000000000000000000000000000000000000000000ffffffffffff",
          "blockHash": "0x40f10cb532484b361cce33f4ade8ff08d453120d5ac38c1dfe3e8557f9fbce46",
          "blockNumber": "0x2c93206",
          "blockTimestamp": "0x69b6df52",
          "transactionHash": "0x312a5ac1c85e275693a149013f187d66eb7e723eb13935b69d182669b01ea402",
          "transactionIndex": "0x6",
          "logIndex": "0x4",
          "removed": false
        }
      ],
      "logsBloom": "0x00010000000000000000000000000000000000000000000000000000000004000000000000000000000000000000000000000000000000000002000000080000000000000000000000000000000000000000000000000000000000001000000000000000000000000000000000000000000000000040000000000000000040000820000000000000000000000000000000000000000000000000000000000000000000000000000000000000000000000000000000000000000000080000000000000000000000000000000000000000000000000000400040000000000200000000000000000000000000000000000000000000000000000000000000002400",
      "type": "0x2",
      "transactionHash": "0x312a5ac1c85e275693a149013f187d66eb7e723eb13935b69d182669b01ea402",
      "transactionIndex": "0x6",
      "blockHash": "0x40f10cb532484b361cce33f4ade8ff08d453120d5ac38c1dfe3e8557f9fbce46",
      "blockNumber": "0x2c93206",
      "gasUsed": "0xbaca",
      "effectiveGasPrice": "0x7a121",
      "blobGasUsed": "0xa8c0",
      "from": "0xfb9f232a7b84039480f3c7178900ee89920238f4",
      "to": "0x000000000022d473030f116ddee9f6b43ac78ba3",
      "contractAddress": null,
      "daFootprintGasScalar": "0x190",
      "l1BaseFeeScalar": "0x7d0",
      "l1BlobBaseFee": "0x1",
      "l1BlobBaseFeeScalar": "0xdbba0",
      "l1Fee": "0x84",
      "l1GasPrice": "0xa",
      "l1GasUsed": "0x6cd"
    },
    {
      "status": "0x1",
      "cumulativeGasUsed": "0xcd709",
      "logs": [
        {
          "address": "0x00b036b58a818b1bc34d502d3fe730db729e62ac",
          "topics": [
            "0xdd466e674ea557f56295e2d0218a125ea4b4f0f6f3307b95f85e6110838d6438",
            "0xc729b4764ab9a33ec1992c9e506f4f3e3ab9ec29e89833a57eba92e41eebf21e",
            "0x0000000000000000000000001b46779584a8bfae6f77418f6c3024fba9e7b92a",
            "0x000000000000000000000000a740013d461b6eee7e774cad7f5d049919ac801b"
          ],
          "data": "0x0000000000000000000000000000000000000000000000000000000000000bb8000000000000000000000000000000000000000000000000000000000000003c000000000000000000000000cd6606e077b271316d09de8521adbe72f8eb408800000000000000000000000000000000000000010000000000000000000000000000000000000000000000000000000000000000000000000000000000000000",
          "blockHash": "0x40f10cb532484b361cce33f4ade8ff08d453120d5ac38c1dfe3e8557f9fbce46",
          "blockNumber": "0x2c93206",
          "blockTimestamp": "0x69b6df52",
          "transactionHash": "0x0bd0058b1bb3efb72d37aa61dc36bc336e8dcc3087dc1c8aa517e32ace084c4f",
          "transactionIndex": "0x7",
          "logIndex": "0x5",
          "removed": false
        },
        {
          "address": "0xf969aee60879c54baaed9f3ed26147db216fd664",
          "topics": [
            "0xddf252ad1be2c89b69c2b068fc378daa952ba7f163c4a11628f55a4df523b3ef",
            "0x0000000000000000000000000000000000000000000000000000000000000000",
            "0x000000000000000000000000fb9f232a7b84039480f3c7178900ee89920238f4",
            "0x0000000000000000000000000000000000000000000000000000000000001c22"
          ],
          "data": "0x",
          "blockHash": "0x40f10cb532484b361cce33f4ade8ff08d453120d5ac38c1dfe3e8557f9fbce46",
          "blockNumber": "0x2c93206",
          "blockTimestamp": "0x69b6df52",
          "transactionHash": "0x0bd0058b1bb3efb72d37aa61dc36bc336e8dcc3087dc1c8aa517e32ace084c4f",
          "transactionIndex": "0x7",
          "logIndex": "0x6",
          "removed": false
        },
        {
          "address": "0x00b036b58a818b1bc34d502d3fe730db729e62ac",
          "topics": [
            "0xf208f4912782fd25c7f114ca3723a2d5dd6f3bcc3ac8db5af63baa85f711d5ec",
            "0xc729b4764ab9a33ec1992c9e506f4f3e3ab9ec29e89833a57eba92e41eebf21e",
            "0x000000000000000000000000f969aee60879c54baaed9f3ed26147db216fd664"
          ],
          "data": "0xffffffffffffffffffffffffffffffffffffffffffffffffffffffffffff5038000000000000000000000000000000000000000000000000000000000000afc800000000000000000000000000000000000000000000025dfa559f47bf00af9e0000000000000000000000000000000000000000000000000000000000001c22",
          "blockHash": "0x40f10cb532484b361cce33f4ade8ff08d453120d5ac38c1dfe3e8557f9fbce46",
          "blockNumber": "0x2c93206",
          "blockTimestamp": "0x69b6df52",
          "transactionHash": "0x0bd0058b1bb3efb72d37aa61dc36bc336e8dcc3087dc1c8aa517e32ace084c4f",
          "transactionIndex": "0x7",
          "logIndex": "0x7",
          "removed": false
        },
        {
          "address": "0x1b46779584a8bfae6f77418f6c3024fba9e7b92a",
          "topics": [
            "0xddf252ad1be2c89b69c2b068fc378daa952ba7f163c4a11628f55a4df523b3ef",
            "0x000000000000000000000000fb9f232a7b84039480f3c7178900ee89920238f4",
            "0x00000000000000000000000000b036b58a818b1bc34d502d3fe730db729e62ac"
          ],
          "data": "0x00000000000000000000000000000000000000000000021e19e0c9bab2400000",
          "blockHash": "0x40f10cb532484b361cce33f4ade8ff08d453120d5ac38c1dfe3e8557f9fbce46",
          "blockNumber": "0x2c93206",
          "blockTimestamp": "0x69b6df52",
          "transactionHash": "0x0bd0058b1bb3efb72d37aa61dc36bc336e8dcc3087dc1c8aa517e32ace084c4f",
          "transactionIndex": "0x7",
          "logIndex": "0x8",
          "removed": false
        },
        {
          "address": "0xa740013d461b6eee7e774cad7f5d049919ac801b",
          "topics": [
            "0xddf252ad1be2c89b69c2b068fc378daa952ba7f163c4a11628f55a4df523b3ef",
            "0x000000000000000000000000fb9f232a7b84039480f3c7178900ee89920238f4",
            "0x00000000000000000000000000b036b58a818b1bc34d502d3fe730db729e62ac"
          ],
          "data": "0x00000000000000000000000000000000000000000000021e19e0c9bab2400000",
          "blockHash": "0x40f10cb532484b361cce33f4ade8ff08d453120d5ac38c1dfe3e8557f9fbce46",
          "blockNumber": "0x2c93206",
          "blockTimestamp": "0x69b6df52",
          "transactionHash": "0x0bd0058b1bb3efb72d37aa61dc36bc336e8dcc3087dc1c8aa517e32ace084c4f",
          "transactionIndex": "0x7",
          "logIndex": "0x9",
          "removed": false
        }
      ],
      "logsBloom": "0x00000000000000000000000000000000000000000000000000000000000004000000000000000000000000000000080000000000001000000002000000000000000000000000010000001008000000000000000000000000000000001000000000000000020000000000000000004800000000000040000000000010000040000800000001000008000000000008000010000001000001000000000000200000080004000200000004000000000000000820000000000020000000000000000000000002080000000000000040000000400000000000402000000000000220004001000000000000000000000000000004000000081002000000000000002010",
      "type": "0x2",
      "transactionHash": "0x0bd0058b1bb3efb72d37aa61dc36bc336e8dcc3087dc1c8aa517e32ace084c4f",
      "transactionIndex": "0x7",
      "blockHash": "0x40f10cb532484b361cce33f4ade8ff08d453120d5ac38c1dfe3e8557f9fbce46",
      "blockNumber": "0x2c93206",
      "gasUsed": "0x7786b",
      "effectiveGasPrice": "0x7a121",
      "blobGasUsed": "0x20530",
      "from": "0xfb9f232a7b84039480f3c7178900ee89920238f4",
      "to": "0xf969aee60879c54baaed9f3ed26147db216fd664",
      "contractAddress": null,
      "daFootprintGasScalar": "0x190",
      "l1BaseFeeScalar": "0x7d0",
      "l1BlobBaseFee": "0x1",
      "l1BlobBaseFeeScalar": "0xdbba0",
      "l1Fee": "0x194",
      "l1GasPrice": "0xa",
      "l1GasUsed": "0x14b5"
    }
  ],
  "libraries": [],
  "pending": [],
  "returns": {
    "poolKey": {
      "internal_type": "struct PoolKey",
      "value": "(0x1b46779584a8BFaE6F77418F6c3024FBA9e7B92a, 0xA740013D461B6EEE7E774CAd7f5d049919AC801B, 3000, 60, 0xCd6606e077b271316d09De8521ADBE72f8eB4088)"
    }
  },
  "timestamp": 1773592403150,
  "chain": 1301,
  "commit": "0738ad0"
}