{
  "transactions": [
    {
      "hash": "0xa2aef720ddb32b7eba77ff1a27515aecb4b03b32a37c4adae690319df9d0c5fc",
      "transactionType": "CALL",
      "contractName": null,
      "contractAddress": "0x82ec3a310df509a3bde959defbfeaa444bb06a1b",
      "function": "applyReactiveRiskSignal(address,(address,address,uint24,int24,address),uint8,uint128)",
      "arguments": [
        "0xfB9f232a7b84039480F3C7178900eE89920238f4",
        "(0x1b46779584a8BFaE6F77418F6c3024FBA9e7B92a, 0xA740013D461B6EEE7E774CAd7f5d049919AC801B, 3000, 60, 0xCd6606e077b271316d09De8521ADBE72f8eB4088)",
        "2",
        "0"
      ],
      "transaction": {
        "from": "0xfb9f232a7b84039480f3c7178900ee89920238f4",
        "to": "0x82ec3a310df509a3bde959defbfeaa444bb06a1b",
        "gas": "0x129c5",
        "value": "0x0",
        "input": "0x63c984a3000000000000000000000000fb9f232a7b84039480f3c7178900ee89920238f40000000000000000000000001b46779584a8bfae6f77418f6c3024fba9e7b92a000000000000000000000000a740013d461b6eee7e774cad7f5d049919ac801b0000000000000000000000000000000000000000000000000000000000000bb8000000000000000000000000000000000000000000000000000000000000003c000000000000000000000000cd6606e077b271316d09de8521adbe72f8eb408800000000000000000000000000000000000000000000000000000000000000020000000000000000000000000000000000000000000000000000000000000000",
        "nonce": "0xc",
        "chainId": "0x515"
      },
      "additionalContracts": [],
      "isFixedGasLimit": false
    },
    {
      "hash": "0x6735114cf9f5fb887c21d8302e5be721832ae78d77ebe9a76bcab8d6e3c3a1e4",
      "transactionType": "CALL",
      "contractName": null,
      "contractAddress": "0xcd6606e077b271316d09de8521adbe72f8eb4088",
      "function": "applyRiskUpdate((address,address,uint24,int24,address),uint8,uint128)",
      "arguments": [
        "(0x1b46779584a8BFaE6F77418F6c3024FBA9e7B92a, 0xA740013D461B6EEE7E774CAd7f5d049919AC801B, 3000, 60, 0xCd6606e077b271316d09De8521ADBE72f8eB4088)",
        "0",
        "0"
      ],
      "transaction": {
        "from": "0xfb9f232a7b84039480f3c7178900ee89920238f4",
        "to": "0xcd6606e077b271316d09de8521adbe72f8eb4088",
        "gas": "0xbf11",
        "value": "0x0",
        "input": "0xd071520b0000000000000000000000001b46779584a8bfae6f77418f6c3024fba9e7b92a000000000000000000000000a740013d461b6eee7e774cad7f5d049919ac801b0000000000000000000000000000000000000000000000000000000000000bb8000000000000000000000000000000000000000000000000000000000000003c000000000000000000000000cd6606e077b271316d09de8521adbe72f8eb408800000000000000000000000000000000000000000000000000000000000000000000000000000000000000000000000000000000000000000000000000000000",
        "nonce": "0xd",
        "chainId": "0x515"
      },
      "additionalContracts": [],
      "isFixedGasLimit": false
    }
  ],
  "receipts": [
    {
      "status": "0x1",
      "cumulativeGasUsed": "0x4c1bf",
      "logs": [
        {
          "address": "0xcd6606e077b271316d09de8521adbe72f8eb4088",
          "topics": [
            "0xca1d6b2692dc035bd4f7f85d1b7e537be3478daa783c1f59243427fc4769c75e",
            "0xc729b4764ab9a33ec1992c9e506f4f3e3ab9ec29e89833a57eba92e41eebf21e",
            "0x00000000000000000000000082ec3a310df509a3bde959defbfeaa444bb06a1b"
          ],
          "data": "0x00000000000000000000000000000000000000000000000000000000000000020000000000000000000000000000000000000000000000000000000000000000",
          "blockHash": "0x4d541905c62645cde1fbee66103676bbec1a5840c4d15df40efa7225be1ad784",
          "blockNumber": "0x2c9387b",
          "blockTimestamp": "0x69b6e5c7",
          "transactionHash": "0xa2aef720ddb32b7eba77ff1a27515aecb4b03b32a37c4adae690319df9d0c5fc",
          "transactionIndex": "0x4",
          "logIndex": "0x2",
          "removed": false
        },
        {
          "address": "0x82ec3a310df509a3bde959defbfeaa444bb06a1b",
          "topics": [
            "0xc0a4f433f2e65e03e2fd1d8f26a0a1e6059b98b83adab2d53d61d1912982074c",
            "0x000000000000000000000000fb9f232a7b84039480f3c7178900ee89920238f4",
            "0xc729b4764ab9a33ec1992c9e506f4f3e3ab9ec29e89833a57eba92e41eebf21e"
          ],
          "data": "0x00000000000000000000000000000000000000000000000000000000000000020000000000000000000000000000000000000000000000000000000000000000",
          "blockHash": "0x4d541905c62645cde1fbee66103676bbec1a5840c4d15df40efa7225be1ad784",
          "blockNumber": "0x2c9387b",
          "blockTimestamp": "0x69b6e5c7",
          "transactionHash": "0xa2aef720ddb32b7eba77ff1a27515aecb4b03b32a37c4adae690319df9d0c5fc",
          "transactionIndex": "0x4",
          "logIndex": "0x3",
          "removed": false
        }
      ],
      "logsBloom": "0x00000000000000000000000000800000000000000000000000000000000004000000000000000000000000080000000000000000000001000000000000020000000000000000000000010000000000000000000000000000000010000000000000000000000000000000000000000000000000000000000000000000000040000800000040000000000000000000008000000000000000000000000000010008000000000200000004000000000000000000000000000000000000000800000000000000000000000000000000000000182000000000000000000000000000000000000000000000000000000000000200000000001000000000000000000000",
      "type": "0x2",
      "transactionHash": "0xa2aef720ddb32b7eba77ff1a27515aecb4b03b32a37c4adae690319df9d0c5fc",
      "transactionIndex": "0x4",
      "blockHash": "0x4d541905c62645cde1fbee66103676bbec1a5840c4d15df40efa7225be1ad784",
      "blockNumber": "0x2c9387b",
      "gasUsed": "0xd795",
      "effectiveGasPrice": "0x7a121",
      "blobGasUsed": "0x10360",
      "from": "0xfb9f232a7b84039480f3c7178900ee89920238f4",
      "to": "0x82ec3a310df509a3bde959defbfeaa444bb06a1b",
      "contractAddress": null,
      "daFootprintGasScalar": "0x190",
      "l1BaseFeeScalar": "0x7d0",
      "l1BlobBaseFee": "0x1",
      "l1BlobBaseFeeScalar": "0xdbba0",
      "l1Fee": "0xcb",
      "l1GasPrice": "0xa",
      "l1GasUsed": "0xa68"
    },
    {
      "status": "0x1",
      "cumulativeGasUsed": "0x54c14",
      "logs": [
        {
          "address": "0xcd6606e077b271316d09de8521adbe72f8eb4088",
          "topics": [
            "0xca1d6b2692dc035bd4f7f85d1b7e537be3478daa783c1f59243427fc4769c75e",
            "0xc729b4764ab9a33ec1992c9e506f4f3e3ab9ec29e89833a57eba92e41eebf21e",
            "0x000000000000000000000000fb9f232a7b84039480f3c7178900ee89920238f4"
          ],
          "data": "0x00000000000000000000000000000000000000000000000000000000000000000000000000000000000000000000000000000000000000000000000000000000",
          "blockHash": "0x4d541905c62645cde1fbee66103676bbec1a5840c4d15df40efa7225be1ad784",
          "blockNumber": "0x2c9387b",
          "blockTimestamp": "0x69b6e5c7",
          "transactionHash": "0x6735114cf9f5fb887c21d8302e5be721832ae78d77ebe9a76bcab8d6e3c3a1e4",
          "transactionIndex": "0x5",
          "logIndex": "0x4",
          "removed": false
        }
      ],
      "logsBloom": "0x00000000000000000000000000800000000000000000000000000000000004000000000000000000000000000000000000000000000000000000000000000000000000000000000000000000000000000000000000000000000000000000000000000000000000000000000000000000000000000000000000000000000040000800000000000000000000000000008000000000000000000000000000010008000000000200000004000000000000000000000000000000000000000000000000000000000000000000000000000000100000000000000000000000000000000000000000000000000000000000000200000000001000000000000000000000",
      "type": "0x2",
      "transactionHash": "0x6735114cf9f5fb887c21d8302e5be721832ae78d77ebe9a76bcab8d6e3c3a1e4",
      "transactionIndex": "0x5",
      "blockHash": "0x4d541905c62645cde1fbee66103676bbec1a5840c4d15df40efa7225be1ad784",
      "blockNumber": "0x2c9387b",
      "gasUsed": "0x8a55",
      "effectiveGasPrice": "0x7a121",
      "blobGasUsed": "0xb9f0",
      "from": "0xfb9f232a7b84039480f3c7178900ee89920238f4",
      "to": "0xcd6606e077b271316d09de8521adbe72f8eb4088",
      "contractAddress": null,
      "daFootprintGasScalar": "0x190",
      "l1BaseFeeScalar": "0x7d0",
      "l1BlobBaseFee": "0x1",
      "l1BlobBaseFeeScalar": "0xdbba0",
      "l1Fee": "0x92",
      "l1GasPrice": "0xa",
      "l1GasUsed": "0x77b"
    }
  ],
  "libraries": [],
  "pending": [],
  "returns": {},
  "timestamp": 1773594056302,
  "chain": 1301,
  "commit": "0738ad0"
}