{
  "transactions": [
    {
      "hash": "0x6949762f3b06c8fab1212c41f40ea06165c5db5855c473083b48240703926ac5",
      "transactionType": "CALL",
      "contractName": null,
      "contractAddress": "0xcd6606e077b271316d09de8521adbe72f8eb4088",
      "function": "configureMarket((address,address,uint24,int24,address),bool,uint8,uint128)",
      "arguments": [
        "(0x1b46779584a8BFaE6F77418F6c3024FBA9e7B92a, 0xA740013D461B6EEE7E774CAd7f5d049919AC801B, 3000, 60, 0xCd6606e077b271316d09De8521ADBE72f8eB4088)",
        "true",
        "0",
        "0"
      ],
      "transaction": {
        "from": "0xfb9f232a7b84039480f3c7178900ee89920238f4",
        "to": "0xcd6606e077b271316d09de8521adbe72f8eb4088",
        "gas": "0x12f10",
        "value": "0x0",
        "input": "0x1d9d4c000000000000000000000000001b46779584a8bfae6f77418f6c3024fba9e7b92a000000000000000000000000a740013d461b6eee7e774cad7f5d049919ac801b0000000000000000000000000000000000000000000000000000000000000bb8000000000000000000000000000000000000000000000000000000000000003c000000000000000000000000cd6606e077b271316d09de8521adbe72f8eb4088000000000000000000000000000000000000000000000000000000000000000100000000000000000000000000000000000000000000000000000000000000000000000000000000000000000000000000000000000000000000000000000000",
        "nonce": "0x9",
        "chainId": "0x515"
      },
      "additionalContracts": [],
      "isFixedGasLimit": false
    }
  ],
  "receipts": [
    {
      "status": "0x1",
      "cumulativeGasUsed": "0x34925",
      "logs": [
        {
          "address": "0xcd6606e077b271316d09de8521adbe72f8eb4088",
          "topics": [
            "0x3580091fbd0cd593328f8233a67a6fa97f4322de390787526176f74d61f2453d",
            "0xc729b4764ab9a33ec1992c9e506f4f3e3ab9ec29e89833a57eba92e41eebf21e"
          ],
          "data": "0x000000000000000000000000000000000000000000000000000000000000000100000000000000000000000000000000000000000000000000000000000000000000000000000000000000000000000000000000000000000000000000000000",
          "blockHash": "0x52f05bf724b2381a41b72e84e89825ca091391472a983aca7fbdc8c3100eef81",
          "blockNumber": "0x2c93261",
          "blockTimestamp": "0x69b6dfad",
          "transactionHash": "0x6949762f3b06c8fab1212c41f40ea06165c5db5855c473083b48240703926ac5",
          "transactionIndex": "0x3",
          "logIndex": "0x1",
          "removed": false
        }
      ],
      "logsBloom": "0x00000000000000000000000000800000000000080000000000002000000000000000000000000000000000000000000000000000000000000000000000000000000000000000000000000000000000000000000000000000000000000000000000000000000000000000000000000000000000000000000000000000000000000000000000000000000000000000000000000000000000000000000000110000000000000200000004000000000000000000000000000000000000000000000000000000000000000000000000000000100000000000000000000000000000000000000000000000000000000000000000000000001000000000000000000000",
      "type": "0x2",
      "transactionHash": "0x6949762f3b06c8fab1212c41f40ea06165c5db5855c473083b48240703926ac5",
      "transactionIndex": "0x3",
      "blockHash": "0x52f05bf724b2381a41b72e84e89825ca091391472a983aca7fbdc8c3100eef81",
      "blockNumber": "0x2c93261",
      "gasUsed": "0xcf39",
      "effectiveGasPrice": "0x7a121",
      "blobGasUsed": "0xc800",
      "from": "0xfb9f232a7b84039480f3c7178900ee89920238f4",
      "to": "0xcd6606e077b271316d09de8521adbe72f8eb4088",
      "contractAddress": null,
      "daFootprintGasScalar": "0x190",
      "l1BaseFeeScalar": "0x7d0",
      "l1BlobBaseFee": "0x1",
      "l1BlobBaseFeeScalar": "0xdbba0",
      "l1Fee": "0x9c",
      "l1GasPrice": "0xa",
      "l1GasUsed": "0x800"
    }
  ],
  "libraries": [],
  "pending": [],
  "returns": {
    "poolKey": {
      "internal_type": "struct PoolKey",
      "value": "(0x1b46779584a8BFaE6F77418F6c3024FBA9e7B92a, 0xA740013D461B6EEE7E774CAd7f5d049919AC801B, 3000, 60, 0xCd6606e077b271316d09De8521ADBE72f8eB4088)"
    }
  },
  "timestamp": 1773592494035,
  "chain": 1301,
  "commit": "0738ad0"
}